:020000040000FA
:100000000C9462000C948A000C948A000C948A0070
:100010000C948A000C948A000C948A000C948A0038
:100020000C948A000C948A000C948A000C94BD06EF
:100030000C948A000C948A000C948A000C948A0018
:100040000C9473060C948A000C948A000C948A0019
:100050000C948A000C948A000C948A000C948A00F8
:100060000C9479070C948A000000000023002600FD
:10007000290000000008000201000003040700003E
:1000800000000000000000000000250028002B00F8
:1000900000000000240027002A00040404040404D3
:1000A0000404020202020202030303030303010227
:1000B00004081020408001020408102001020408F6
:1000C0001020980811241FBECFEFD8E0DEBFCDBFAF
:1000D00011E0A0E0B1E0E8E3F5E202C005900D9286
:1000E000A03FB107D9F723E0A0EFB1E001C01D9216
:1000F000A633B207E1F710E0C2E6D0E004C02197D2
:10010000FE010E94BC0FC136D107C9F70E94DE086C
:100110000C949A120C9400008F929F92AF92BF920F
:10012000FF920F931F93CF93DF938F3F980711F4A4
:1001300090E080E0F09027032BE02F1508F44CC0EE
:100140002091290308E512E0021B110927FD1395F0
:10015000000F111F000F111F20912803C8E8D0E0E5
:10016000C21BD10927FDD395CC0FDD1FCC0FDD1F9E
:100170004E010D2E000CAA08BB089801012E000CA0
:10018000440B550B281939094A095B09DC010E9407
:10019000340D24EB30E040E050E00E940A0D820E66
:1001A000931EA41EB51E8C169D062CF0E801801629
:1001B00091060CF4E4012297CC0FDD1F2FB7F894C1
:1001C0008F2D90E0FC01EE0FFF1FE80FF91FEE5F8F
:1001D000FC4FD283C1832FBFDF91CF911F910F912D
:1001E000FF90BF90AF909F908F90089508950895CD
:1001F000AF92BF92CF92DF92EF92FF920F931F9335
:10020000CF93DF936C017B018B01040F151FEB0172
:100210005E01AE18BF08C017D10759F06991D60129
:10022000ED91FC910190F081E02DC6010995892B9B
:1002300079F7C501DF91CF911F910F91FF90EF905A
:10024000DF90CF90BF90AF900895833081F028F475
:10025000813099F08230A9F008958730A9F0883074
:10026000C9F08430B1F4809180008F7D03C080910B
:1002700080008F7780938000089584B58F7784BD48
:10028000089584B58F7DFBCF8091B0008F778093E8
:10029000B00008958091B0008F7DF9CFCF93DF93A8
:1002A000282F30E0F901EE58FF4F8491F901E25513
:1002B000FF4FD491F901E656FF4FC491CC23A1F032
:1002C00081110E942501EC2FF0E0EE0FFF1FE8598D
:1002D000FF4FA591B491EC91ED2381E090E009F4FA
:1002E00080E0DF91CF91089580E090E0FACF1F93F6
:1002F000CF93DF93282F30E0F901EE58FF4F849120
:10030000F901E255FF4FD491F901E656FF4FC49130
:10031000CC23A9F0162F81110E942501EC2FF0E0CB
:10032000EE0FFF1FEA57FF4FA591B4918FB7F894D6
:10033000EC91111108C0D095DE23DC938FBFDF91C3
:10034000CF911F910895DE2BF8CF3FB7F89480919D
:10035000C0029091C102A091C202B091C30226B521
:10036000A89B05C02F3F19F00196A11DB11D3FBFED
:10037000BA2FA92F982F8827BC01CD01620F711DBC
:10038000811D911D42E0660F771F881F991F4A95B6
:10039000D1F708958F929F92AF92BF92CF92DF9242
:1003A000EF92FF924B015C010E94A5016B017C0161
:1003B0000E94A5016C197D098E099F09683E734052
:1003C00081059105A8F321E0821A9108A108B108DE
:1003D00088EEC80E83E0D81EE11CF11C8114910444
:1003E000A104B10429F7FF90EF90DF90CF90BF9068
:1003F000AF909F908F9008952FB7F8946091BC02B2
:100400007091BD028091BE029091BF022FBF0895EE
:1004100020917002260F3327331F21323105ECF46F
:1004200020919402FC0190E080E0243069F082E0A9
:100430000895A09170022191AC01405B5D4FA40F23
:10044000B52FB11D2C930196861798F380917002F9
:10045000680F6093700280E0089581E00895109223
:10046000940281E0809396021092950261E082E10D
:100470000E94770161E083E10E947701E9EBF0E0FF
:1004800080818E7F808380818D7F808388E48093CC
:10049000B80085E48093BC000895CF93DF9391E08A
:1004A00090934F028823B9F0C091B800D091BA0060
:1004B0008091BC008A7B8093BC0060E082E10E9456
:1004C000770160E083E10E9477010E942F02D093C0
:1004D000BA00C093B800DF91CF9108950895E091DC
:1004E000CB028091CA02E81730F4F0E0E65DFD4FE0
:1004F000808190E008958FEF9FEF08959091CB0257
:100500008091CA022FEF3FEF981748F4E92FF0E0EF
:10051000E65DFD4F208130E09F5F9093CB02C901E3
:1005200008958091CA029091CB02891B990B08957E
:10053000CF92DF92EF92FF920F931F93CF93DF93AF
:100540007C01CB018A0120912902222389F0EB0151
:100550006B01C40ED51ECC15DD0569F06991D7017C
:10056000ED91FC910190F081E02DC7010995F3CF49
:10057000642F0E940802C801DF91CF911F910F9153
:10058000FF90EF90DF90CF900895CF93DF931F926D
:10059000CDB7DEB76983209129022223F9F020919B
:1005A000C802203258F021E030E0FC01338322837E
:1005B00090E080E00F90DF91CF9108958091C90283
:1005C000E82FF0E0E75FFD4F998190838F5F809384
:1005D000C9028093C80281E090E0ECCF61E0CE01D7
:1005E00001960E940802F7CFCF92DF92EF92FF921E
:1005F0000F931F93CF93DF93FC01C48121E02093DD
:100600002902C09308021092C9021092C802838581
:10061000682B86EF92E00E94C502D091C802D132C9
:1006200008F092C00E94A5016B017C0180919402A8
:10063000811165C082E08093940281E080939602EC
:100640008FEF809393021092B802D093B702A9E083
:10065000B2E0E7E9F2E080E0D81385C01092B90279
:100660008091B902CC0FC82BC093B902809195023A
:10067000813009F07CC0109295020E94A5016B01A7
:100680007C018091B9028093BB0080914B029091D4
:100690004C02A0914D02B0914E02892B8A2B8B2BDC
:1006A00099F00E94A50100914B0210914C022091FB
:1006B0004D0230914E026C197D098E099F09061773
:1006C000170728073907E0F18091BC0083FDD9CFD7
:1006D00085EC8093BC000E94A5016B017C01809198
:1006E0009402823009F445C0809193028F3F61F1FA
:1006F00080919302803241F18091930225C08091D4
:100700004B0290914C02A0914D02B0914E02892B68
:100710008A2B8B2B09F48ACF0E94A50100914B02F2
:1007200010914C0220914D0230914E026C197D09BE
:100730008E099F09061717072807390708F076CF93
:1007400080914A020E944D021092C9021092C80282
:1007500010922902DF91CF911F910F91FF90EF909E
:10076000DF90CF9008959D9191938F5F75CF85EE27
:10077000B0CF80914B0290914C02A0914D02B0916C
:100780004E02892B8A2B8B2B09F4A9CF0E94A5013D
:1007900000914B0210914C0220914D0230914E027B
:1007A0006C197D098E099F09061717072807390755
:1007B00008F095CFC5CF089590E080E00895CF93DD
:1007C000DF93CAE5D0E0CE010E948C0065E070E0C6
:1007D00080E090E00E94CA012197A8F71092ED02F4
:1007E0001092EE021092EF021092F002DF91CF9180
:1007F0000895CF93DF93D0E0C0E0CE010E948C003B
:1008000065E070E080E090E00E94CA012196CB355F
:10081000D10599F7DF91CF910895FC010190002057
:10082000E9F73197AF01481B590BBC018AE293E00D
:100830000C94F8008F929F92AF92BF920F931F93E8
:10084000CF93DF93CDB7DEB7A1970FB6F894DEBF95
:100850000FBECDBF19A2423008F44AE08E010F5DF1
:100860001F4F842E912CB12CA12CA50194010E9424
:100870003C0DE62FB901CA01EA30F4F4E05DD8017D
:10088000EE938D01232B242B252B79F790E080E02C
:10089000109719F0CD010E940D04A1960FB6F8949F
:1008A000DEBF0FBECDBFDF91CF911F910F91BF90E3
:1008B000AF909F908F900895E95CE1CF0C940D0468
:1008C0000F931F93CF938C01C62F0E94F4026C2FBD
:1008D0006460C8010E94F4026C2F6B7FC8010E9403
:1008E000F40283EC90E00197F1F7CF911F910F9103
:1008F00008950F931F93CF93DF938C01D62FC42FAE
:10090000607F642B0E94600480E1D89FB0011124B5
:100910006C2BC801DF91CF911F910F910C94600453
:1009200040E0682F8AE293E00C947904CF93DF9340
:10093000CDB7DEB728970FB6F894DEBF0FBECDBF98
:1009400098E0E8E0F1E0DE01119601900D929A95B1
:10095000E1F790913203961710F46FEF690F70E092
:10096000660F771F21E030E02C0F3D1F620F731FD1
:10097000FB019081890F806828960FB6F894DEBF3E
:100980000FBECDBFDF91CF910C94900481E00E9407
:1009900090048BE39FE10197F1F7089541E00E94F5
:1009A000790481E090E00895CF92DF92EF92FF9278
:1009B0006B017C0141E06DE28AE293E00E947904E0
:1009C00066277727CB016C197D098E099F094AE0BC
:1009D0000E941A040196FF90EF90DF90CF90089547
:1009E000BC01990F880B990B97FD0C94D4044AE035
:1009F0000C941A042F923F924F925F926F927F92C3
:100A00008F929F92AF92BF92CF92DF92EF92FF921E
:100A10000F931F93CF93DF9300D000D0CDB7DEB7F5
:100A200050EFE52E51E0F52E60E0862E62E0962E26
:100A300010E000E0AA24A394B12C22242A94322CA2
:100A40008091CC028017110609F00CF4D4C084E028
:100A5000800F89830E944E01892BA9F4F4018081C3
:100A60009181892B81F4B182A082F801EE0FFF1FE2
:100A7000E050FF4F318220820E94FC01F701608329
:100A800071838283938389810E944E010F5F1F4F80
:100A9000019709F0A0C0F70180819181A281B38103
:100AA000892B8A2B8B2B09F496C08091F10281113E
:100AB00011C00E94C6048EE291E00E945E04C8014B
:100AC0000E94F00461E080E00E9496048BE391E0D4
:100AD0000E945E040E94FC012B013C013DEDC32EEF
:100AE00032E0D32E1C821B82F601619171918191BB
:100AF00091916F0120E030E0A9010E94DA0D81118F
:100B000071C0F70180819181A281B381481A590A8D
:100B10006A0A7B0ACB80DC80CC0CDD1CC6018353C7
:100B20009D4F9A838983C301B20120E63AEE40E0EB
:100B300050E00E940A0DE981FA8131832083C601C9
:100B40008B529D4F6C01C301B20128EE33E040E0AF
:100B500050E00E940A0DCA01B9012CE330E040E0E8
:100B600050E00E940A0DF601718360838B819C81A5
:100B7000880F991F880F991F83529D4F9A838983ED
:100B8000C301B2010E94890E20E030E04AE754E43C
:100B90000E94DF0D20E030E040E752E40E94DF0DCC
:100BA00020E030E040EA51E40E943E0FE981FA8102
:100BB0006083718382839383F40111821082F70131
:100BC0001082118212821382F801EE0FFF1FE25091
:100BD000FF4F11830083F4E0EF0EF11C82E0880EDA
:100BE000911C2ECF8B819C8101969C838B830497D3
:100BF00009F07ACFE1CF0F900F900F900F90DF9117
:100C0000CF911F910F91FF90EF90DF90CF90BF9009
:100C1000AF909F908F907F906F905F904F903F909C
:100C20002F900895CF93DF930E94C604CAE2D3E0C9
:100C30008E81982F91609E8389600E94900489E440
:100C400091E00E945E0461E080E00E94960481E5EC
:100C500091E00E945E0484E190E00E94F00489E546
:100C600091E00E945E048E818E7F8E838860DF918A
:100C7000CF910C94900485ED8093BC0080914B0241
:100C800090914C02A0914D02B0914E020796A11D89
:100C9000B11D23E0B695A795979587952A95D1F72D
:100CA0002091BC0024FD03C010929402089540914D
:100CB0004B0250914C0260914D0270914E02452BB7
:100CC000462B472B69F30097A105B10541F025E3B9
:100CD0002A95F1F700000197A109B109E1CF8091B0
:100CE0004A020C944D021F920F920FB60F921124DC
:100CF0002F933F938F939F93AF93BF938091BC02A9
:100D00009091BD02A091BE02B091BF023091BB0292
:100D100023E0230F2D3758F50196A11DB11D209317
:100D2000BB028093BC029093BD02A093BE02B0931D
:100D3000BF028091C0029091C102A091C202B09105
:100D4000C3020196A11DB11D8093C0029093C10200
:100D5000A093C202B093C302BF91AF919F918F91B4
:100D60003F912F910F900FBE0F901F90189526E87E
:100D7000230F0296A11DB11DD2CF1F920F920FB665
:100D80000F9211242F933F934F935F936F937F9311
:100D90008F939F93AF93BF93CF93DF93EF93FF9383
:100DA0008091BA02C0912603D0E087FF24C0109240
:100DB0008500109284008091BA028F5F8093BA02FE
:100DC0008091BA02082E000C990B8C179D0724F411
:100DD0008091BA028C30C4F180918400909185009A
:100DE000049680349C4908F47AC0809184009091E4
:100DF0008500049676C08091BA02082E000C990BEB
:100E00008C179D07C4F6E091BA028E2FEE0F990B56
:100E1000FC01EE0FFF1FE80FF91FEE5FFC4F808112
:100E200086FFC9CFE091BA028E2FEE0F990BFC011D
:100E3000EE0FFF1FE80FF91FEE5FFC4F808160E0AF
:100E40008F730E947701B7CF209184003091850085
:100E5000E091BA028E2FEE0F990BFC01EE0FFF1FEF
:100E6000E80FF91FEE5FFC4F81819281820F931F83
:100E70009093890080938800E091BA028E2FEE0F44
:100E8000990BFC01EE0FFF1FE80FF91FEE5FFC4FFF
:100E9000808186FF11C0E091BA028E2FEE0F990B70
:100EA000FC01EE0FFF1FE80FF91FEE5FFC4F808182
:100EB00061E08F730E947701FF91EF91DF91CF91F5
:100EC000BF91AF919F918F917F916F915F914F9162
:100ED0003F912F910F900FBE0F901F90189580E4B7
:100EE0009CE990938900809388008FEF8093BA02E9
:100EF000E3CF1F920F920FB60F9211242F933F93BF
:100F00004F935F936F937F938F939F93AF93BF9311
:100F1000EF93FF938091B900887F803609F44AC02F
:100F2000F0F5883209F4A7C018F5803109F49BC0A8
:100F3000B8F4882309F4F9C0883009F494C0FF910B
:100F4000EF91BF91AF919F918F917F916F915F9141
:100F50004F913F912F910F900FBE0F901F901895BA
:100F6000883109F488C0803251F78093930214C00D
:100F7000803409F49DC040F48033B9F38833F9F626
:100F80008093930285ECB0C0803509F485C0883524
:100F900009F496C0883499F60E943B06D0CF883970
:100FA00009F48CC038F5883729F050F4883611F0F0
:100FB000803729F683E0809394021092920257C002
:100FC000883809F47BC0803919F0803809F0B7CF30
:100FD00080919202803208F071C0E091920281E02B
:100FE0008E0F809392028091BB00F0E0EE58FD4F8F
:100FF00080833DC0803B39F0E0F4803A09F479C049
:10100000883A09F09CCF84E0809394021092710298
:1010100010927002E091C602F091C702099580918A
:10102000700281110FC081E0809370021092500213
:1010300009C0803C09F4A6CF883C09F4A3CF883BC3
:1010400009F07DCFE091710281E08E0F80937102F3
:10105000F0E0E05BFD4F80818093BB0090917102D6
:101060008091700229C08091B9028093BB0085EC09
:101070008093BC0064CF9091B8028091B70298171A
:1010800058F5E091B80281E08E0F8093B802F0E04D
:10109000E956FD4F8081E9CFE091B80281E08E0FE3
:1010A0008093B8028091BB00F0E0E956FD4F808349
:1010B0009091B8028091B7029817C8F285E8D8CF0E
:1010C000E091B80281E08E0F8093B8028091BB005E
:1010D000F0E0E956FD4F80838091960281115CCF4C
:1010E00081E08093950284EA8093BC001092940280
:1010F00026CF85EC8093BC001092940280919202DE
:10110000803230F4E0919202F0E0EE58FD4F108210
:101110006091920270E0E091C402F091C50282E712
:1011200092E00995109292020ACF1092930234CF66
:101130001092F9021092F80288EE93E0A0E0B0E07D
:101140008093FA029093FB02A093FC02B093FD02FD
:1011500084E191E09093F7028093F60210922D03C0
:1011600010922C0386E291E090932B0380932A0344
:1011700087E280932E0380E18093330382E08093A3
:10118000340310923503809126038C3098F491E05B
:10119000980F909326038093270390E0FC01EE0FB5
:1011A000FF1FE80FF91FEE5FFC4F88EB9BE0928377
:1011B000818308958FEF809327030895CF93DF9362
:1011C000CDB7DEB764970FB6F894DEBF0FBECDBFC4
:1011D000789484B5826084BD84B5816084BD85B512
:1011E000826085BD85B5816085BD80916E0081601E
:1011F00080936E00109281008091810082608093C4
:1012000081008091810081608093810080918000C5
:101210008160809380008091B10084608093B100F0
:101220008091B00081608093B00080917A008460EA
:1012300080937A0080917A00826080937A00809116
:101240007A00816080937A0080917A008068809330
:101250007A001092C1001092CB021092CA02109232
:10126000C9021092C8020E942F0286EF90E090936C
:10127000C7028093C60287EF90E09093C5028093E7
:10128000C40210922F0380913403823018F098E04A
:1012900090932F038093320362E370E080E090E04C
:1012A0000E94CA01609135038AE293E00E94F40231
:1012B00068EE73E080E090E00E94CA0160E38AE299
:1012C00093E00E9460040BE416E4C8010197F1F773
:1012D00060E38AE293E00E946004C8010197F1F79D
:1012E00060E38AE293E00E94600483E592E0019764
:1012F000F1F760E28AE293E00E94600480912F039C
:1013000080620E94900484E0809330038CE00E940D
:1013100090040E94C60482E08093310386E00E941C
:10132000900482E00E9490048BE39FE10197F1F723
:1013300088E08093350360E08AE293E00E94F40243
:1013400080913003982F91609093300389600E94C0
:10135000900480E691E00E945E046AE080E00E94D2
:1013600096048EE691E00E945E046CED75E080E0EC
:1013700090E00E94CA010E94C60486E791E00E94A4
:101380005E0442E050E0FA01E255FF4F2491FA0179
:10139000E656FF4F84918823C9F090E0880F991F8B
:1013A000FC01E057FF4FA591B491FC01EA57FF4FB4
:1013B000659174919FB7F8948C91E22FE0958E23FC
:1013C0008C93DB018C91E823EC939FBF4F5F5F4FC1
:1013D00048305105C1F661E080E00E94960484E83F
:1013E00091E00E945E0404E0802F0E944E0101976C
:1013F000B9F46091CC0211E0160F1093CC0261E0B9
:1014000088E00E949604612F70E090E080E04AE05E
:101410000E941A0464EF71E080E090E00E94CA012B
:101420000F5F083009F7809130038E7F809330037F
:1014300088600E94900468EE73E080E090E00E9473
:10144000CA018091CC028093F102809127038C30F5
:1014500008F068C0E6EBF0E02491E2EAF0E0849165
:10146000882399F090E0880F991FFC01E057FF4F07
:10147000A591B491FC01EA57FF4F859194918FB7E4
:10148000F894EC91E22BEC938FBF80912703282FE7
:1014900030E0F901EE0FFF1FE20FF31FEE5FFC4F8C
:1014A0009081907C98609083109228031092290379
:1014B0002CE0622F0E94B00F829FB001112430E017
:1014C00020E0AB01420F531FFA01EE0FFF1FE40FA4
:1014D000F51FEE5FFC4F908196FD16C02F5F3F4FCA
:1014E0002C30310571F781110FC01092800082E01D
:1014F000809381001092850010928400B19A8091AF
:101500006F00826080936F00E09127038E2F90E040
:10151000FC01EE0FFF1FE80FF91FEE5FFC4F80810B
:10152000806480830E94FA040E941206FE013196B4
:101530003F0188248394912C82E00E944E01892BE4
:1015400009F0CAC10091F4021091F50201151105CC
:1015500009F0C2C18091F2029091F302019709F063
:101560006BC10E94DF030E94C60420E030E0A901A5
:101570006091DD027091DE028091DF029091E002C5
:101580000E94DA0D882309F437C18091D6028F9327
:101590008091D5028F938091CE028F938091CD025E
:1015A0008F932CE831E03F932F937F926F920E94AC
:1015B000C20FC3010E945E0461E080E00E949604B5
:1015C00081E591E00E945E04C090DD02D090DE02D1
:1015D000E090DF02F090E0020FB6F894DEBF0FBE9D
:1015E000CDBFA7019601C701B6010E94AB0F8823AA
:1015F00009F468C08AE991E00E940D0486EA91E04E
:101600000E945E041092CE021092CD021092D60279
:101610001092D5021092DD021092DE021092DF02CB
:101620001092E0028091CC02E82FE150FF0B2F01D5
:101630009DEDA92E92E0B92E2DECC22E22E0D22EE5
:1016400035EDE32E32E0F32E041515050CF0CEC077
:10165000D5016D917D918D919C910E94510E0F5FEE
:101660001F4FF5012481358146815781D5012D9386
:101670003D934D935D935D01072E000C880B990BF4
:101680000E94890EF5016083718382839383D60162
:101690008D919C91119712962D913C91F601219379
:1016A00031936F0191838083D7018D919C91119724
:1016B00012962D913C91F701219331937F019183F3
:1016C0008083C2CF16012701E89457F82FEF3FEF30
:1016D0004FE75FE7C201B1010E94AB0F81110DC05E
:1016E0002FEF3FEF4FE75FE7C201B1010E94DA0D34
:1016F00018161CF48EE991E07FCF2FEF3FEF4FE7F4
:101700005FE4C701B6010E94390F18161CF482EA83
:1017100091E072CF2FEF3FEF4FE75FECC701B601CB
:101720000E94DA0D87FDF3CF20E030E0A901C70168
:10173000B6010E94DA0D87FF0AC041E06DE28AE23D
:1017400093E00E947904F7FAF094F7F8F0942AE015
:1017500037ED43EA5BE3C701B6010E946E0D1B0142
:101760002C010E94580E6B017C010E94870E9B0188
:10177000AC01C201B1010E946D0D1B012C014AE0B8
:10178000C701B6010E941A0441E06EE28AE293E0CA
:101790000E94790420E030E040E251E4C201B1014E
:1017A0000E943E0F1B012C010E94580E6B01F12C70
:1017B000E12C4AE0C701B6010E941A04C701B60134
:1017C0000E94870E9B01AC01C201B1010E946D0D08
:1017D00020E030E040E251E40E943E0F0E94580EAB
:1017E00090E080E04AE00E941A0408CF68EB7BE0BA
:1017F00080E090E00E94CA010E94C60489EA91E05C
:101800000E945E0461E080E00E94960483EB91E018
:101810000E945E0460ED77E080E090E00E94CA01E3
:101820001092F3021092F2028091F1028F5F809386
:10183000F1020E94120650C08091F102882309F43F
:10184000BDC09092F5028092F4020E94C6048BEB18
:1018500091E00E945E0461E080E00E94960480E0D6
:10186000E82E81E0F82ED7016D917D917D016F3FCB
:10187000760779F0072E000C880B990B97FF9AC01A
:101880000E94D4040330110549F088EC91E00E94D5
:101890005E040F5F1F4F0430110529F760ED77E0FC
:1018A00080E090E00E94CA010E94C6048BEC91E0A7
:1018B0000E945E0460ED77E080E090E00E94CA0143
:1018C0000E94F9030E94FC016093ED027093EE0206
:1018D0008093EF029093F00283E00E944E01892BE7
:1018E00009F58091F2029091F302892BD9F490923C
:1018F000F3028092F2028091F4029091F502009737
:1019000009F075C08091F102843060F40E94F903FF
:101910000E94FC016093ED027093EE028093EF024F
:101920009093F0020E94FC01C090ED02D090EE0274
:10193000E090EF02F090F0026C197D098E099F098A
:101940006D37754181059105B8F00E94FC016C1955
:101950007D098E099F09603777418105910560F403
:101960000E94DF030E9412061092F5021092F40208
:101970001092F3021092F2028091F4029091F5021B
:10198000019771F48091F2029091F302019741F472
:101990001092F5021092F4021092F3021092F202E9
:1019A0000E94FA0420E030E0232B09F4C5CD0E9408
:1019B0000000C2CD4AE00E941A0464CF0E94C6040F
:1019C0008CED91E00E945E0461E080E00E9496044C
:1019D00082EE91E00E945E0460ED77E080E090E0AE
:1019E0000E94CA011092F5021092F40222CF0197D0
:1019F00009F098CF0E94DF036CED75E080E090E085
:101A00000E94CA018091F10281508093F1020E94EC
:101A1000120688CF052E97FB1EF400940E94210D1C
:101A200057FD07D00E943C0D07FC03D04EF40C94E8
:101A3000210D50954095309521953F4F4F4F5F4F69
:101A4000089590958095709561957F4F8F4F9F4F2A
:101A500008950E945E0DA59F900DB49F900DA49FC8
:101A6000800D911D11240895B7FF0C94290D0E943B
:101A7000290D821B930B0895A1E21A2EAA1BBB1BF2
:101A8000FD010DC0AA1FBB1FEE1FFF1FA217B3074A
:101A9000E407F50720F0A21BB30BE40BF50B661F60
:101AA000771F881F991F1A9469F760957095809524
:101AB00090959B01AC01BD01CF010895A29FB0019B
:101AC000B39FC001A39F700D811D1124911DB29F72
:101AD000700D811D1124911D08955058BB27AA2710
:101AE0000E94850D0C94FF0E0E94F10E38F00E94AA
:101AF000F80E20F039F49F3F19F426F40C94EE0E02
:101B00000EF4E095E7FB0C94E80EE92F0E94100F0D
:101B100058F3BA17620773078407950720F079F422
:101B2000A6F50C94320F0EF4E0950B2EBA2FA02DD3
:101B30000B01B90190010C01CA01A0011124FF277A
:101B4000591B99F0593F50F4503E68F11A16F04075
:101B5000A22F232F342F4427585FF3CF4695379574
:101B60002795A795F0405395C9F77EF41F16BA0B39
:101B7000620B730B840BBAF09150A1F0FF0FBB1FE7
:101B8000661F771F881FC2F70EC0BA0F621F731F30
:101B9000841F48F4879577956795B795F7959E3F8D
:101BA00008F0B0CF9395880F08F09927EE0F97951E
:101BB000879508950E94C40E08F481E008950E945C
:101BC000F30D0C94FF0E0E94F80E58F00E94F10ED7
:101BD00040F029F45F3F29F00C94E80E51110C9469
:101BE000330F0C94EE0E0E94100F68F39923B1F39B
:101BF000552391F3951B550BBB27AA276217730733
:101C0000840738F09F5F5F4F220F331F441FAA1FC6
:101C1000A9F335D00E2E3AF0E0E832D09150504082
:101C2000E695001CCAF72BD0FE2F29D0660F771F30
:101C3000881FBB1F261737074807AB07B0E809F016
:101C4000BB0B802DBF01FF2793585F4F3AF09E3F9B
:101C5000510578F00C94E80E0C94330F5F3FE4F3D9
:101C6000983ED4F3869577956795B795F7959F5FDE
:101C7000C9F7880F911D9695879597F90895E1E02A
:101C8000660F771F881FBB1F621773078407BA0789
:101C900020F0621B730B840BBA0BEE1F88F7E095E4
:101CA00008950E94580E6894B1110C94330F089552
:101CB0000E94180F88F09F5798F0B92F9927B751B5
:101CC000B0F0E1F0660F771F881F991F1AF0BA95E0
:101CD000C9F714C0B13091F00E94320FB1E00895FD
:101CE0000C94320F672F782F8827B85F39F0B93FEF
:101CF000CCF3869577956795B395D9F73EF4909593
:101D00008095709561957F4F8F4F9F4F0895E89410
:101D100009C097FB3EF490958095709561957F4F33
:101D20008F4F9F4F9923A9F0F92F96E9BB279395E1
:101D3000F695879577956795B795F111F8CFFAF4F1
:101D4000BB0F11F460FF1BC06F5F7F4F8F4F9F4F22
:101D500016C0882311F096E911C0772321F09EE880
:101D6000872F762F05C0662371F096E8862F70E0E6
:101D700060E02AF09A95660F771F881FDAF7880FC0
:101D80009695879597F90895990F0008550FAA0B16
:101D9000E0E8FEEF16161706E807F907C0F012167E
:101DA0001306E407F50798F0621B730B840B950B81
:101DB00039F40A2661F0232B242B252B21F40895D6
:101DC0000A2609F4A140A6958FEF811D811D089573
:101DD00097F99F6780E870E060E008959FEF80ECDE
:101DE000089500240A941616170618060906089581
:101DF00000240A9412161306140605060895092EE7
:101E00000394000C11F4882352F0BB0F40F4BF2B55
:101E100011F460FF04C06F5F7F4F8F4F9F4F089595
:101E200057FD9058440F551F59F05F3F71F047958B
:101E3000880F97FB991F61F09F3F79F08795089570
:101E4000121613061406551FF2CF4695F1DF08C08F
:101E5000161617061806991FF1CF869571056105AC
:101E600008940895E894BB2766277727CB0197F954
:101E700008950E94C40E08F48FEF08950E94510F38
:101E80000C94FF0E0E94F10E38F00E94F80E20F024
:101E9000952311F00C94E80E0C94EE0E11240C9482
:101EA000330F0E94100F70F3959FC1F3950F50E010
:101EB000551F629FF001729FBB27F00DB11D639FFC
:101EC000AA27F00DB11DAA1F649F6627B00DA11DA2
:101ED000661F829F2227B00DA11D621F739FB00D48
:101EE000A11D621F839FA00D611D221F749F3327B8
:101EF000A00D611D231F849F600D211D822F762F51
:101F00006A2F11249F5750409AF0F1F088234AF02D
:101F1000EE0FFF1FBB1F661F771F881F9150504099
:101F2000A9F79E3F510580F00C94E80E0C94330FF6
:101F30005F3FE4F3983ED4F3869577956795B79520
:101F4000F795E7959F5FC1F7FE2B880F911D96953A
:101F5000879597F908950E94C40E880B990B0895F0
:101F6000991B79E004C0991F961708F0961B881FEB
:101F70007A95C9F780950895EE0FFF1F0590F491AB
:101F8000E02D0994AEE0B0E0E8ECFFE00C947112B3
:101F90000D891E8986E08C831A8309838FEF9FE762
:101FA0009E838D83AE01475E5F4F6F89788DCE0132
:101FB00001960E94E50F2F813885020F131FF8014B
:101FC00010822E96E4E00C948D12ABE0B0E0EBEEC4
:101FD000FFE00C9463127C013B018A01FC01178233
:101FE0001682838181FFC8C1CE0101965C01F70191
:101FF0009381F30193FD859193FF81913F018823A4
:1020000009F453C1853239F493FD859193FF819191
:102010003F01853229F4B70190E00E94D511E7CF46
:10202000912C212C312CFFE1F31538F08B3211F17A
:1020300090F4803209F1833229F137FC3CC020ED65
:10204000280F2A3050F536FE20C08AE0989E200DD9
:102050001124922E06C08D3291F0803371F768946E
:1020600030F8F30193FD859193FF81913F01811138
:10207000DACF21C0689431F8689432F8F2CF6894CE
:1020800033F8EFCF689434F8ECCFEAE02E9E200DC1
:102090001124222E689435F8E4CF8E3229F436FCD0
:1020A00004C1689436F8DDCF8C3619F4689437F89B
:1020B000D8CF8836B1F2982F9F7D95549330E0F0B9
:1020C0008336A1F18337C1F1833509F063C028015C
:1020D000F2E04F0E511CF801C080D180692D70E0F4
:1020E00036FC02C06FEF7FEFC6010E94BF114C01AA
:1020F000689437F882010AC00C5F1F4FFFE3F98331
:1021000088248394912C6501E89437F833FE2DC020
:10211000522C8114910471F5552009F468CFB70150
:1021200080E290E00E94D5115A94F6CFF8018081A8
:1021300089830E5F1F4FE4CF2801F2E04F0E511C40
:10214000F801C080D180692D70E036FC02C06FEFCD
:102150007FEFC6010E94CA114C018201D5CFB701A1
:1021600080E290E00E94D5112A942814190409F005
:10217000B0F7CECFF60137FC859137FE81916F0124
:10218000B70190E00E94D51151105A94F1E08F1AD6
:102190009108BFCF843619F0893609F077C0F8016D
:1021A00037FE6BC060817181828193810C5F1F4F0C
:1021B000F32DFF763F2E97FF09C09095809570957F
:1021C00061957F4F8F4F9F4F689437F82AE030E03A
:1021D000A5010E940512C82ECA188C2C432C36FE6D
:1021E0000CC0E89440F8C91440F434FE05C032FC39
:1021F00003C0F32DFE7E4F2E892C44FE95C0FE01B8
:10220000EC0DF11D8081803309F087C0242D297EDB
:10221000422E842D8870582E43FC95C040FE8FC0FE
:102220009C2C821418F42C0C922C981844FE91C00B
:10223000B70180E390E00E94D51142FE09C088E713
:1022400090E041FE02C088E590E0B7010E94D51100
:10225000C91408F48AC0CA94D12C9FEFC91AD90AAC
:10226000CA0CDB1CF60182916F01B70190E00E945D
:10227000D511AC14BD04B1F74FCF60817181072E29
:10228000000C880B990B0E5F1F4F92CFD32CE89454
:10229000D4F82AE030E0853739F1232D297FD22E7A
:1022A0008F3601F148F48835A9F0F70186819781CE
:1022B0002B96E2E10C947F12803749F08837A9F71A
:1022C000D4FE02C06894D2F820E130E00DC06894DA
:1022D000D4F8F6CF34FE03C0822F8660D82E20E1DA
:1022E00032E002C028E030E0F801D7FE0FC0608184
:1022F0007181828193810C5F1F4FA5010E9405129D
:10230000C82ECA183D2CE89437F867CF60817181D8
:1023100090E080E00E5F1F4FF0CF42FC02C083943C
:1023200078CF8394839475CF842D867809F471CF08
:10233000F6CFB70180E290E00E94D5118394821419
:10234000C0F3512C73CF522C5818821408F46ECF5E
:10235000F8CF842D867809F47BCF8BE241FE80E2B2
:1023600047FC8DE2B70190E071CFB70180E390E0C8
:102370000E94D5119A946CCF8FEF9FEF99CFFC01FB
:102380000590615070400110D8F7809590958E0FA0
:102390009F1F0895FC016150704001900110D8F713
:1023A000809590958E0F9F1F08950F931F93CF9345
:1023B000DF93182F092FEB018B8181FD09C01FEFDF
:1023C0000FEF812F902FDF91CF911F910F910895E3
:1023D00082FF14C02E813F818C819D81281739078F
:1023E0003CF4E881F981CF010196998388831083B9
:1023F0008E819F8101969F838E83E3CFE885F98547
:10240000812F0995892BA1F3DACFFA01AA27283069
:1024100051F1203181F1E8946F936E7F6E5F7F4FB1
:102420008F4F9F4FAF4FB1E03ED0B4E03CD0670F2D
:10243000781F891F9A1FA11D680F791F8A1F911D80
:10244000A11D6A0F711D811D911DA11D20D009F4D0
:1024500068943F912AE0269F11243019305D319312
:10246000DEF6CF010895462F4770405D4193B3E0FB
:102470000FD0C9F7F6CF462F4F70405D4A3318F0A2
:10248000495D31FD4052419302D0A9F7EACFB4E053
:10249000A6959795879577956795BA95C9F700970B
:1024A0006105710508959B01AC010A2E06945795AC
:1024B000479537952795BA95C9F7620F731F841F03
:1024C000951FA01D08952F923F924F925F926F9299
:1024D0007F928F929F92AF92BF92CF92DF92EF92B4
:1024E000FF920F931F93CF93DF93CDB7DEB7CA1B35
:1024F000DB0B0FB6F894DEBF0FBECDBF09942A8860
:10250000398848885F846E847D848C849B84AA8407
:10251000B984C884DF80EE80FD800C811B81AA8194
:10252000B981CE0FD11D0FB6F894DEBF0FBECDBF5F
:10253000ED010895F894FFCF0100020003000400AC
:10254000000040001400540000000000C502980282
:10255000DC036E0291027E026F0200000000CE04D6
:10256000F800DC03DB0343617220696E20736C6F3B
:102570007420006973206C656176696E672E2E2E5B
:102580000077656C636F6D650070726963653A20F2
:10259000004C452F6D696E00536D6172742070613F
:1025A000726B696E670070726F6A65637400536561
:1025B0007474696E672075702E2E2E00536C6F74C4
:1025C000733A200054696D653A2025646D202564B6
:1025D00073006E616E00696E66006F7666004C4532
:1025E000005468616E6B20796F7500476F6F6442AD
:1025F0007965006672656520736C6F74733A2000AC
:102600002C20004861707079205061726B696E6790
:102610003A2D2900536F727279005061726B696EA6
:08262000672066756C6C210057
:107E0000112484B714BE81FFF0D085E080938100F7
:107E100082E08093C00088E18093C10086E0809377
:107E2000C20080E18093C4008EE0C9D0259A86E02C
:107E300020E33CEF91E0309385002093840096BBD3
:107E4000B09BFECF1D9AA8958150A9F7CC24DD24C4
:107E500088248394B5E0AB2EA1E19A2EF3E0BF2EE7
:107E6000A2D0813461F49FD0082FAFD0023811F036
:107E7000013811F484E001C083E08DD089C08234E0
:107E800011F484E103C0853419F485E0A6D080C0E4
:107E9000853579F488D0E82EFF2485D0082F10E0AE
:107EA000102F00270E291F29000F111F8ED06801E7
:107EB0006FC0863521F484E090D080E0DECF843638
:107EC00009F040C070D06FD0082F6DD080E0C81688
:107ED00080E7D80618F4F601B7BEE895C0E0D1E017
:107EE00062D089930C17E1F7F0E0CF16F0E7DF06D8
:107EF00018F0F601B7BEE89568D007B600FCFDCFD4
:107F0000A601A0E0B1E02C9130E011968C91119780
:107F100090E0982F8827822B932B1296FA010C0160
:107F200087BEE89511244E5F5F4FF1E0A038BF0790
:107F300051F7F601A7BEE89507B600FCFDCF97BE46
:107F4000E89526C08437B1F42ED02DD0F82E2BD052
:107F50003CD0F601EF2C8F010F5F1F4F84911BD097
:107F6000EA94F801C1F70894C11CD11CFA94CF0C13
:107F7000D11C0EC0853739F428D08EE10CD085E9AC
:107F80000AD08FE07ACF813511F488E018D01DD067
:107F900080E101D065CF982F8091C00085FFFCCF94
:107FA0009093C60008958091C00087FFFCCF809118
:107FB000C00084FD01C0A8958091C6000895E0E648
:107FC000F0E098E1908380830895EDDF803219F02E
:107FD00088E0F5DFFFCF84E1DECF1F93182FE3DFCA
:107FE0001150E9F7F2DF1F91089580E0E8DFEE27F6
:047FF000FF270994CA
:027FFE00040479
:00000001FF
